{
  "contractName": "ChainTrade",
  "abi": [
    {
      "constant": true,
      "inputs": [],
      "name": "getOwner",
      "outputs": [
        {
          "name": "",
          "type": "address"
        }
      ],
      "payable": false,
      "stateMutability": "view",
      "type": "function"
    },
    {
      "constant": false,
      "inputs": [
        {
          "name": "_tradeNo",
          "type": "uint256"
        }
      ],
      "name": "confirmTrade",
      "outputs": [
        {
          "name": "",
          "type": "bool"
        }
      ],
      "payable": false,
      "stateMutability": "nonpayable",
      "type": "function"
    },
    {
      "constant": true,
      "inputs": [
        {
          "name": "_tradeNo",
          "type": "uint256"
        }
      ],
      "name": "getTradeInfoTo",
      "outputs": [
        {
          "name": "",
          "type": "address"
        }
      ],
      "payable": false,
      "stateMutability": "view",
      "type": "function"
    },
    {
      "constant": true,
      "inputs": [
        {
          "name": "_tradeNo",
          "type": "uint256"
        }
      ],
      "name": "getTradeInfoStatus",
      "outputs": [
        {
          "name": "",
          "type": "uint256"
        }
      ],
      "payable": false,
      "stateMutability": "view",
      "type": "function"
    },
    {
      "constant": true,
      "inputs": [],
      "name": "_owner",
      "outputs": [
        {
          "name": "",
          "type": "address"
        }
      ],
      "payable": false,
      "stateMutability": "view",
      "type": "function"
    },
    {
      "constant": true,
      "inputs": [
        {
          "name": "_tradeNo",
          "type": "uint256"
        }
      ],
      "name": "getTradeInfoAmount",
      "outputs": [
        {
          "name": "",
          "type": "uint256"
        }
      ],
      "payable": false,
      "stateMutability": "view",
      "type": "function"
    },
    {
      "constant": true,
      "inputs": [],
      "name": "masToken",
      "outputs": [
        {
          "name": "",
          "type": "address"
        }
      ],
      "payable": false,
      "stateMutability": "view",
      "type": "function"
    },
    {
      "constant": false,
      "inputs": [
        {
          "name": "_tradeTo",
          "type": "address"
        },
        {
          "name": "_amount",
          "type": "uint256"
        },
        {
          "name": "_tradeNo",
          "type": "uint256"
        }
      ],
      "name": "sendTrade",
      "outputs": [
        {
          "name": "",
          "type": "bool"
        }
      ],
      "payable": false,
      "stateMutability": "nonpayable",
      "type": "function"
    },
    {
      "inputs": [],
      "payable": false,
      "stateMutability": "nonpayable",
      "type": "constructor"
    }
  ],
  "bytecode": "0x6080604052730e4a5f081842668d4e4107176dcb1a444c213596600260006101000a81548173ffffffffffffffffffffffffffffffffffffffff021916908373ffffffffffffffffffffffffffffffffffffffff16021790555034801561006557600080fd5b5033600160006101000a81548173ffffffffffffffffffffffffffffffffffffffff021916908373ffffffffffffffffffffffffffffffffffffffff160217905550610827806100b66000396000f3fe608060405234801561001057600080fd5b50600436106100885760003560e01c8063b2bdfa7b1161005b578063b2bdfa7b146101cd578063cd199ebd14610217578063e5953a7c14610259578063eee8bbda146102a357610088565b8063893d20e81461008d5780639ec0507f146100d7578063a54c6fbf1461011d578063b190275c1461018b575b600080fd5b610095610313565b604051808273ffffffffffffffffffffffffffffffffffffffff1673ffffffffffffffffffffffffffffffffffffffff16815260200191505060405180910390f35b610103600480360360208110156100ed57600080fd5b810190808035906020019092919050505061033d565b604051808215151515815260200191505060405180910390f35b6101496004803603602081101561013357600080fd5b81019080803590602001909291905050506105be565b604051808273ffffffffffffffffffffffffffffffffffffffff1673ffffffffffffffffffffffffffffffffffffffff16815260200191505060405180910390f35b6101b7600480360360208110156101a157600080fd5b81019080803590602001909291905050506105fd565b6040518082815260200191505060405180910390f35b6101d561061c565b604051808273ffffffffffffffffffffffffffffffffffffffff1673ffffffffffffffffffffffffffffffffffffffff16815260200191505060405180910390f35b6102436004803603602081101561022d57600080fd5b8101908080359060200190929190505050610642565b6040518082815260200191505060405180910390f35b610261610661565b604051808273ffffffffffffffffffffffffffffffffffffffff1673ffffffffffffffffffffffffffffffffffffffff16815260200191505060405180910390f35b6102f9600480360360608110156102b957600080fd5b81019080803573ffffffffffffffffffffffffffffffffffffffff1690602001909291908035906020019092919080359060200190929190505050610687565b604051808215151515815260200191505060405180910390f35b6000600160009054906101000a900473ffffffffffffffffffffffffffffffffffffffff16905090565b60008073ffffffffffffffffffffffffffffffffffffffff163373ffffffffffffffffffffffffffffffffffffffff16141561037857600080fd5b600160008084815260200190815260200160002060040154141561039b57600080fd5b3373ffffffffffffffffffffffffffffffffffffffff1660008084815260200190815260200160002060010160009054906101000a900473ffffffffffffffffffffffffffffffffffffffff1673ffffffffffffffffffffffffffffffffffffffff161461040857600080fd5b6000600260009054906101000a900473ffffffffffffffffffffffffffffffffffffffff1673ffffffffffffffffffffffffffffffffffffffff166323b872dd60008086815260200190815260200160002060000160009054906101000a900473ffffffffffffffffffffffffffffffffffffffff1633600080888152602001908152602001600020600201546040518463ffffffff1660e01b8152600401808473ffffffffffffffffffffffffffffffffffffffff1673ffffffffffffffffffffffffffffffffffffffff1681526020018373ffffffffffffffffffffffffffffffffffffffff1673ffffffffffffffffffffffffffffffffffffffff1681526020018281526020019350505050602060405180830381600087803b15801561053157600080fd5b505af1158015610545573d6000803e3d6000fd5b505050506040513d602081101561055b57600080fd5b8101908080519060200190929190505050905080156105b357600160008085815260200190815260200160002060040181905550426000808581526020019081526020016000206005018190555060019150506105b9565b60009150505b919050565b600080600083815260200190815260200160002060010160009054906101000a900473ffffffffffffffffffffffffffffffffffffffff169050919050565b6000806000838152602001908152602001600020600401549050919050565b600160009054906101000a900473ffffffffffffffffffffffffffffffffffffffff1681565b6000806000838152602001908152602001600020600201549050919050565b600260009054906101000a900473ffffffffffffffffffffffffffffffffffffffff1681565b60008073ffffffffffffffffffffffffffffffffffffffff163373ffffffffffffffffffffffffffffffffffffffff1614156106c257600080fd5b6040518060c001604052803373ffffffffffffffffffffffffffffffffffffffff1681526020018573ffffffffffffffffffffffffffffffffffffffff168152602001848152602001838152602001600081526020014281525060008084815260200190815260200160002060008201518160000160006101000a81548173ffffffffffffffffffffffffffffffffffffffff021916908373ffffffffffffffffffffffffffffffffffffffff16021790555060208201518160010160006101000a81548173ffffffffffffffffffffffffffffffffffffffff021916908373ffffffffffffffffffffffffffffffffffffffff16021790555060408201518160020155606082015181600301556080820151816004015560a0820151816005015590505060019050939250505056fea265627a7a723158205a0b72f1dbe4699054674607adc929509adbecce640f8fc025dac97051ba5b6864736f6c63430005100032",
  "source": "pragma solidity >=0.4.21 <0.7.0;\n\n\ncontract MASToken {\n\n    /// total amount of tokens\n    uint256 public totalSupply;\n\n    /// @param _owner The address from which the balance will be retrieved\n    /// @return The balance\n    function balanceOf(address _owner) public view returns (uint256 balance);\n\n    /// @notice send `_value` token to `_to` from `msg.sender`\n    /// @param _to The address of the recipient\n    /// @param _value The amount of token to be transferred\n    /// @return Whether the transfer was successful or not\n    function transfer(address _to, uint256 _value) public returns (bool success);\n\n    /// @notice send `_value` token to `_to` from `_from` on the condition it is approved by `_from`\n    /// @param _from The address of the sender\n    /// @param _to The address of the recipient\n    /// @param _value The amount of token to be transferred\n    /// @return Whether the transfer was successful or not\n    function transferFrom(address _from, address _to, uint256 _value) public returns (bool success);\n\n    /// @notice `msg.sender` approves `_spender` to spend `_value` tokens\n    /// @param _spender The address of the account able to transfer the tokens\n    /// @param _value The amount of tokens to be approved for transfer\n    /// @return Whether the approval was successful or not\n    function approve(address _spender, uint256 _value) public returns (bool success);\n\n    /// @param _owner The address of the account owning tokens\n    /// @param _spender The address of the account able to transfer the tokens\n    /// @return Amount of remaining tokens allowed to spent\n    function allowance(address _owner, address _spender) public view returns (uint256 remaining);\n\n    event Transfer(address indexed _from, address indexed _to, uint256 _value);\n    event Approval(address indexed _owner, address indexed _spender, uint256 _value);\n}\n\n\ncontract ChainTrade{\n\n    // event for EVM logging\n    // event OwnerSet(address indexed oldOwner, address indexed newOwner);\n    // event TradeSet(uint256 tradeNo,address indexed tradeFrom, address indexed tradeTo, uint256 status);\n\n//交易详情\n    struct TradeDetails {\n        address tradeFrom;//发货人地址\n        address tradeTo;//收货人地址\n        uint256 masTokenAmount;//口罩token数量\n        uint256 tradeNo;//订单号\n        uint256 status;  //状态 0：已发货 1：已收货\n        uint256 updateTime;//更新时间\n\n    }\n\n    mapping(uint256=>TradeDetails) tradeMapping;//交易记录\n\n    address public _owner ;\n\n    MASToken public masToken = MASToken(0x0e4a5f081842668D4E4107176dcb1a444c213596);//初始化该合约\n\n\n    //构造函数\n    constructor() public {\n        _owner = msg.sender;\n        // emit OwnerSet(address(0), _owner);\n    }\n\n    //发货人发货\n    function sendTrade(address _tradeTo,uint256 _amount,uint256 _tradeNo) public returns (bool) {\n\n        require(msg.sender != address(0));\n\n\n        //生成订单记录\n\n        tradeMapping[_tradeNo] = TradeDetails({\n                tradeFrom:msg.sender,\n                tradeTo:_tradeTo,\n                masTokenAmount:_amount,\n                tradeNo:_tradeNo,\n                status:0,\n                updateTime:now\n        });\n\n        // emit TradeSet(_tradeNo,msg.sender,_tradeTo, 0);\n        return true;\n\n    }\n\n\n    //收货人确认收货\n    function confirmTrade(uint256 _tradeNo) public returns (bool) {\n\n        require(msg.sender != address(0));\n\n        //判断该交易是否确认过\n        require(tradeMapping[_tradeNo].status !=1 );\n\n        //判断该交易是否是自己的交易\n        require(tradeMapping[_tradeNo].tradeTo == msg.sender );\n\n        //token获取\n        bool transferRlt = masToken.transferFrom(\n            tradeMapping[_tradeNo].tradeFrom,\n            msg.sender,\n            tradeMapping[_tradeNo].masTokenAmount\n            );\n\n        if(transferRlt){\n            tradeMapping[_tradeNo].status = 1;\n            tradeMapping[_tradeNo].updateTime = now;\n            // emit TradeSet(_tradeNo,tradeMapping[_tradeNo].tradeFrom,msg.sender, 1);\n\n            return true;\n        }else{\n            return false;\n        }\n\n    }\n\n\n    /**\n     * @dev Return owner address\n     * @return address of owner\n     */\n    function getOwner() public view returns (address) {\n        return _owner;\n    }\n\n    //返回交易记录status\n    function getTradeInfoStatus(uint256 _tradeNo) public view returns (uint){\n        return tradeMapping[_tradeNo].status;\n    }\n\n    //返回交易记录to\n    function getTradeInfoTo(uint256 _tradeNo) public view returns (address){\n        return tradeMapping[_tradeNo].tradeTo;\n    }\n\n    //返回交易记录数量\n    function getTradeInfoAmount(uint256 _tradeNo) public view returns (uint){\n        return tradeMapping[_tradeNo].masTokenAmount;\n    }\n\n}",
  "sourcePath": "/Users/liwenjia/elaproject/contracts/ChainTrade.sol",
  "compiler": {
    "name": "solc",
    "version": "0.5.16+commit.9c3226ce.Emscripten.clang"
  },
  "schemaVersion": "3.0.23",
  "updatedAt": "2020-03-03T07:43:27.639Z",
  "networkType": "ethereum",
  "devdoc": {
    "methods": {
      "getOwner()": {
        "details": "Return owner address",
        "return": "address of owner"
      }
    }
  },
  "userdoc": {
    "methods": {}
  }
}